S013000041726475696E6F436F64652E73726563C4
S11300000C9434000C9451000C9451000C94510045
S11300100C9451000C9451000C9451000C94510018
S11300200C9451000C9451000C9451000C948F00CA
S11300300C9451000C9451000C9451000C945100F8
S11300400C9451000C9451000C9451000C945100E8
S11300500C9451000C9451000C9451000C945100D8
S11300600C9451000C94510011241FBECFEFD8E022
S1130070DEBFCDBF11E0A0E0B1E0ECE5F2E002C0EC
S113008005900D92A830B107D9F721E0A8E0B1E0BE
S113009001C01D92AF30B207E1F70E94F3000C9447
S11300A02C010C940000CF92DF92EF92FF92CF9339
S11300B06B017C01C22F50930901409308011092F7
S11300C0850010928400E22FF0E0EE5FFE4F80E0A6
S11300D094E2A4EFB0E0BC01CD01008004C0969589
S11300E08795779567950A94D2F7A70196010E94A0
S11300F00A0121503109309389002093880010921D
S11301008000C770C860C093810016BA82E08093F3
S11301106F00CF91FF90EF90DF90CF9008951F92E2
S11301200F920FB60F9211242F933F934F935F9327
S11301306F937F938F939F93AF93BF93EF93FF93AB
S1130140E0910801F09109010995FF91EF91BF91A8
S1130150AF919F918F917F916F915F914F913F915B
S11301602F910F900FBE0F901F90189583B18F732E
S1130170089595B1907C8F73892B85B908958091EA
S11301800C0190910D01883321E0920730F401961F
S113019090930D0180930C010FC010920D011092E9
S11301A00C0181E080930E01809100019091010186
S11301B090930B0180930A0120910A0130910B0165
S11301C080910C0190910D018217930730F40E94E5
S11301D0B60081600E94B90008950E94B6008E7F27
S11301E00E94B900089584B1816084B985B18160A9
S11301F085B924E04FEB50E060E078EC80E090E0DB
S11302000E945300789480910E018823E1F31092A8
S11302100E01F9CFA1E21A2EAA1BBB1BFD010DC0D2
S1130220AA1FBB1FEE1FFF1FA217B307E407F507A2
S113023020F0A21BB30BE40BF50B661F771F881F7E
S1130240991F1A9469F760957095809590959B0114
S10F0250AC01BD01CF010895F894FFCF6C
S10B025C9C0000000306080ADF
S9030000FC
