:100000000C9484000C94A1000C94A1000C94A10009
:100010000C94A1000C94A1000C94A1000C94A100DC
:100020000C94A1000C94A1000C94A1000C94E90183
:100030000C94A1000C94A1000C9495010C94A100C7
:100040000C94A1000C94A1000C94A1000C94A100AC
:100050000C94A1000C94A1000C94A1000C94A1009C
:100060000C94A1000C94A10007634236B79BD8A75B
:100070001A39685618AEBAAB558C1D3CB7CC5763CD
:10008000BD6DEDFD753EF6177231BF000000803F7B
:1000900005A84CCDB2D44EB93836A9020C50B9914E
:1000A0008688083CA6AAAA2ABE000000803F080055
:1000B0000000BE922449123EABAAAA2ABECDCCCCE7
:1000C0004C3E00000080BEABAAAAAA3E0000000081
:1000D000BF000000803F0000000000084178D3BB53
:1000E0004387D1133D190E3CC3BD4282AD2B3E6800
:1000F000EC8276BED98FE1A93E4C80EFFFBE01C4F1
:10010000FF7F3F000000000011241FBECFEFD8E0AA
:10011000DEBFCDBF11E0A0E0B1E0EEE3F3E102C04D
:1001200005900D92A630B107D9F723E0A6E0B1E023
:1001300001C01D92A430B207E1F70E9460020C9446
:100140009D090C94000089B18C7F08959BB1937038
:100150008C7F892B8BB908958AB18C7F08959AB1D1
:1001600093708C7F892B8AB9089586B18F73089517
:1001700098B1907C8F73892B88B9089587B18F735C
:10018000089597B1907C8F73892B87B9089583B1B7
:100190008F73089595B1907C8F73892B85B90895DD
:1001A00084B18F73089594B1907C8F73892B84B937
:1001B0000895FC0188B18B7F88B987B1846087B9C5
:1001C000F89429C098B1892F8B7F946001900080AA
:1001D00007D0029005D001900190019001D01AC083
:1001E00008D007D006D005D004D003D002D001D06B
:1001F000089590932800001C0000000010F08093E8
:1002000028000000000000000000000010F48093AF
:1002100028000895B9019B0121503109672B09F08D
:10022000D1CF78948FE391E00197F1F700C00000FF
:100230000895CF93DF93C0E0D0E039C0BE0180E0E5
:1002400090E00E94810622ED33E54BEF51E40E94DD
:100250000F0720E030E044E253E40E94D9050E94F9
:10026000CC0720E030E040E05FE30E940F0720E091
:1002700030E040E05FE30E946D0520E030E040E8C0
:1002800050E40E947C0720E030E04FE753E40E94F6
:100290000F070E945206FE01EE0FFF1FEC0FFD1F1D
:1002A000E85EFE4F8FEF8083618362832196C43ABC
:1002B000D10520F2DF91CF910895CF92DF92EF9296
:1002C000C0900103D0900203E090030383EA90E022
:1002D00019C09C0121503109FC01EE0FFF1F8E0F48
:1002E0009F1FFC01E85EFE4FD901AA0FBB1FA20FA2
:1002F000B31FA85EBE4F8D919D91AC918083918379
:10030000A283C9011816190624F3C0921801D092CD
:100310001901E0921A0164EA70E088E191E00E941C
:10032000D900EF90DF90CF9008951F920F920FB6F3
:100330000F9211240F900FBE0F901F901895CF921F
:10034000DF92EF92FF92CF936B017C01C22F50930B
:100350000701409306011092850010928400E22F5D
:10036000F0E0E050FF4F80E094E2A4EFB0E0BC0189
:10037000CD01008004C096958795779567950A947E
:10038000D2F7A70196010E945C09215031093093F0
:1003900089002093880010928000C770C860C093C5
:1003A000810016BA82E080936F00CF91FF90EF90AA
:1003B000DF90CF900895EFE6F0E08081887F808322
:1003C000109280001092810010928200108216BA62
:1003D00008951F920F920FB60F9211242F933F93FF
:1003E0004F935F936F937F938F939F93AF93BF933D
:1003F000EF93FF93E0910601F09107010995FF91BA
:10040000EF91BF91AF919F918F917F916F915F918C
:100410004F913F912F910F900FBE0F901F90189505
:100420009C0140E050E060E472E48FE090E00E94C4
:100430007E09BA01A9014150510961097109852F4D
:100440008F708093C5004093C40088E18093C10001
:100450008EE08093C200089580E895E20E94100229
:1004600008950E94AC008F700E94AF000E94A3000C
:10047000806F0E94A6000895CF93C82F0E94A3000A
:10048000282F30E0C901809590952C2F30E028234B
:10049000392381E0232B09F480E0CF9108950E9455
:1004A000BE0081600E94C1000E94B5008E7F0E9444
:1004B000B80008950E94B50081600E94B8000895B8
:1004C00078940E942C020E9426040E944F020E94EF
:1004D0005A020E9419010E945D010E9401030E94BC
:1004E0005D0160E080E00E94C3032FEF81E19AE7A5
:1004F000215080409040E1F700C0000060E083E0C0
:100500000E94C3032FEF81E19AE721508040904081
:10051000E1F700C0000063E080E00E94C3032FEF1A
:1005200081E19AE7215080409040E1F700C000004F
:1005300067E087E00E94C3032FEF81E19AE7215033
:1005400080409040E1F700C0000060E087E00E943A
:10055000C3032FEF81E19AE7215080409040E1F7FB
:1005600000C0000067E080E00E94C3032FEF81E13C
:100570009AE7215080409040E1F700C0000064E01D
:1005800083E00E94C3032FEF81E19AE7215080406E
:100590009040E1F700C00000A0CFCF93C0E00BC0B7
:1005A00060E070E08CE99FEF0E943D0480E10E94D2
:1005B0003C028111C1E0CC2399F310920C011092FE
:1005C0000D0110920E0110920F01CF910895CF935B
:1005D000C0E00BC06CE97FEF80E090E00E943D043A
:1005E00080E40E943C028111C1E0CC2399F3109277
:1005F00008011092090110920A0110920B01CF918B
:1006000008950E94CD020E94E70208954F925F92E2
:100610006F927F928F929F92AF92BF92CF92DF9212
:10062000EF92FF9269017A0120910C0130910D0146
:1006300040910E0150910F010E946C054B015C012D
:10064000209108013091090140910A0150910B015C
:10065000C701B6010E946C056B017C0124EE36E5F2
:1006600047EF5BE3C501B4010E94D9050E944B0628
:100670002B013C0126E13EED45EE5BE3C701B601EF
:100680000E94D9050E944B06C2010E943D048823A6
:1006900049F1A501940160910C0170910D018091C7
:1006A0000E0190910F010E946D0560930C017093F3
:1006B0000D0180930E0190930F01A70196016091A7
:1006C00008017091090180910A0190910B010E942B
:1006D0006D05609308017093090180930A0190935E
:1006E0000B0144C00E943304BC01990F880B990B85
:1006F0000E9483069B01AC01C501B4010E946C05F8
:100700009B01AC0160910C0170910D0180910E0173
:1007100090910F010E946D0560930C0170930D0183
:1007200080930E0190930F010E943804BC01990F31
:10073000880B990B0E9483069B01AC01C701B6018F
:100740000E946C059B01AC01609108017091090148
:1007500080910A0190910B010E946D056093080140
:100760007093090180930A0190930B01FF90EF9021
:10077000DF90CF90BF90AF909F908F907F906F90C1
:100780005F904F900895CF92DF92EF92FF92CF93B8
:10079000C62F682F70E080E090E00E9483062AE96F
:1007A00039E941EC50E40E940F0723E333E343E2CD
:1007B00051E40E946D056B017C016C2F70E080E0BC
:1007C00090E00E9483062AE939E941EC50E40E9456
:1007D0000F072AE939E949E55FE30E946D059B01AE
:1007E000AC01C701B6010E940603CF91FF90EF90C4
:1007F000DF90CF90089580911001909111018A307F
:10080000910530F40196909311018093100107C077
:10081000109211011092100181E0809317018091D4
:10082000100190911101059740F40E94C70090912A
:100830001601892B0E94CA0008950E94C70090915A
:100840001601909589230E94CA0008950E943102E2
:100850000E94D0008F600E94D3000E94C700807F5A
:100860000E94CA0008958091140190911501089585
:1008700080911201909113010895AF92BF92DF927F
:10088000EF92FF920F931F93CF93DF93009721F482
:100890006115710509F413C110921601009751F00A
:1008A00021E020931601992354F00F2EFAE0FF2E39
:1008B000F02D08C00F2EFAE0FF2EF02D03C0689433
:1008C000FF24F3F86115710551F0209116012460A1
:1008D0002093160177231CF42F2D277FF22E5B0126
:1008E000EC01109215011092140110921301109254
:1008F000120180E10E943C02882349F0DD234CF480
:10090000D0931501C0931401EE24E39403C0E12CAD
:1009100001C0E12C80E20E943C02882349F01C16B1
:100920001D0634F4D0931501C0931401EE24E39412
:1009300080E40E943C02882349F0BB204CF4B09232
:100940001301A0921201DD24D39403C0D12C01C065
:10095000D12C80E80E943C02882349F01A141B0421
:1009600034F4B0921301A0921201DD24D394EE204E
:1009700011F0D110A6C08E01DD2324F40027112729
:100980000C1B1D0BE501DD2324F4CC27DD27CA1940
:10099000DB0980911601882331F00E94C700857F12
:1009A0008F290E94CA0024E04BEF53E068EF7AE2FF
:1009B00080E090E00E949F01809117018823E1F37D
:1009C0001092170180E10E943C02882361F0F1FC43
:1009D0000AC088279927801B910B9093150180935B
:1009E0001401EE24E39480E20E943C02882341F04B
:1009F000F1FE06C01093150100931401EE24E39458
:100A000080E40E943C02882361F0F3FC0AC088273E
:100A100099278C1B9D0B9093130180931201DD2469
:100A2000D39480E80E943C02882341F0F3FE06C084
:100A3000D0931301C0931201DD24D394EE2069F00A
:100A4000209749F40E94C7008A7F0E94CA000E9432
:100A5000DB0180E037C000E010E0DD2071F001151F
:100A6000110549F40E94C7008A7F0E94CA000E94B3
:100A7000DB0180E027C0C0E0D0E0101611061CF4B6
:100A80000150110905C0809116018E7F80931601D7
:100A90001C161D0614F4219705C0809116018B7F4A
:100AA0008093160180911601811186CF0E94C700A4
:100AB0008A7F0E94CA000E94DB0181E003C081E0BE
:100AC00001C080E0DF91CF911F910F91FF90EF90D7
:100AD000DF90BF90AF9008955058BB27AA270E947F
:100AE00084050C94D5060E94C70638F00E94CE06F5
:100AF00020F039F49F3F19F426F40C94C4060EF448
:100B0000E095E7FB0C94BE06E92F0E94E60658F339
:100B1000BA17620773078407950720F079F4A6F5E2
:100B20000C9408070EF4E0950B2EBA2FA02D0B01A4
:100B3000B90190010C01CA01A0011124FF27591B22
:100B400099F0593F50F4503E68F11A16F040A22F28
:100B5000232F342F4427585FF3CF46953795279599
:100B6000A795F0405395C9F77EF41F16BA0B620B98
:100B7000730B840BBAF09150A1F0FF0FBB1F661FDF
:100B8000771F881FC2F70EC0BA0F621F731F841F22
:100B900048F4879577956795B795F7959E3F08F048
:100BA000B0CF9395880F08F09927EE0F979587950A
:100BB00008950E94ED050C94D5060E94CE0658F0CB
:100BC0000E94C70640F029F45F3F29F00C94BE064E
:100BD00051110C9409070C94C4060E94E60668F3B0
:100BE0009923B1F3552391F3951B550BBB27AA27E6
:100BF00062177307840738F09F5F5F4F220F331F20
:100C0000441FAA1FA9F335D00E2E3AF0E0E832D0E7
:100C100091505040E695001CCAF72BD0FE2F29D0EA
:100C2000660F771F881FBB1F261737074807AB07BC
:100C3000B0E809F0BB0B802DBF01FF2793585F4F31
:100C40003AF09E3F510578F00C94BE060C940907CB
:100C50005F3FE4F3983ED4F3869577956795B79513
:100C6000F7959F5FC9F7880F911D9695879597F91E
:100C70000895E1E0660F771F881FBB1F6217730797
:100C80008407BA0720F0621B730B840BBA0BEE1FAC
:100C900088F7E09508950E9452066894B1110C946B
:100CA000090708950E94EE0688F09F5798F0B92F23
:100CB0009927B751B0F0E1F0660F771F881F991F91
:100CC0001AF0BA95C9F714C0B13091F00E94080724
:100CD000B1E008950C940807672F782F8827B85F34
:100CE00039F0B93FCCF3869577956795B395D9F7E9
:100CF0003EF490958095709561957F4F8F4F9F4FF3
:100D00000895E89409C097FB3EF4909580957095FE
:100D100061957F4F8F4F9F4F9923A9F0F92F96E947
:100D2000BB279395F695879577956795B795F111BC
:100D3000F8CFFAF4BB0F11F460FF1BC06F5F7F4F59
:100D40008F4F9F4F16C0882311F096E911C077236B
:100D500021F09EE8872F762F05C0662371F096E874
:100D6000862F70E060E02AF09A95660F771F881F43
:100D7000DAF7880F9695879597F9089597F99F6701
:100D800080E870E060E008959FEF80EC0895002413
:100D90000A941616170618060906089500240A94E0
:100DA00012161306140605060895092E0394000C66
:100DB00011F4882352F0BB0F40F4BF2B11F460FFF5
:100DC00004C06F5F7F4F8F4F9F4F089557FD90581E
:100DD000440F551F59F05F3F71F04795880F97FBFF
:100DE000991F61F09F3F79F08795089512161306B9
:100DF0001406551FF2CF4695F1DF08C016161706E8
:100E00001806991FF1CF869571056105089408951C
:100E1000E894BB2766277727CB0197F908950E94AE
:100E200022070C94D5060E94C70638F00E94CE0611
:100E300020F0952311F00C94BE060C94C4061124E6
:100E40000C9409070E94E60670F3959FC1F3950F75
:100E500050E0551F629FF001729FBB27F00DB11D3E
:100E6000639FAA27F00DB11DAA1F649F6627B00DCE
:100E7000A11D661F829F2227B00DA11D621F739FB7
:100E8000B00DA11D621F839FA00D611D221F749FC5
:100E90003327A00D611D231F849F600D211D822F0C
:100EA000762F6A2F11249F5750409AF0F1F0882333
:100EB0004AF0EE0FFF1FBB1F661F771F881F915060
:100EC0005040A9F79E3F510580F00C94BE060C944B
:100ED00009075F3FE4F3983ED4F3869577956795CD
:100EE000B795F795E7959F5FC1F7FE2B880F911D8A
:100EF0009695879597F90895FA01EE0FFF1F3096A2
:100F000021053105A1F16115710561F48038BFE358
:100F10009B0749F168949038810561F08038BFEFF4
:100F20009B0741F099234AF5FF3FE1053105210573
:100F300019F1E8940894E795D901AA2329F4AB2F75
:100F4000BE2FF85FD0F310C0FF5F70F4A695E0F7F6
:100F5000F73950F019F0FF3A38F49F779F930DD08E
:100F60000F9007FC9058089546F00C94C40660E07A
:100F700070E080E89FE308954FE79F775F934F937A
:100F80003F932F930E94BE082F913F914F915F9105
:100F90000E940F070C94DC079F930E9437080F9064
:100FA00007FCEE5F0C94600829F416F00C94BE0662
:100FB0000C9408070C94C4060E94EE06A8F3963819
:100FC000A0F707F80F92E8942BE33AEA48EB5FE7C3
:100FD0000E9425070F920F920F924DB75EB70F92A6
:100FE0000E940609E8E6F0E00E940E084F915F912A
:100FF000EF91FF91E595EE1FFF1F49F0FE57E06866
:101000004427EE0F441FFA95E1F74195550B0E94D6
:1010100080080F9007FE0C9474080895DF93CF9317
:101020001F930F93FF92EF92DF927B018C016894E4
:1010300006C0DA2EEF010E942207FE01E894A59176
:101040002591359145915591A6F3EF010E948405B4
:10105000FE019701A801DA9469F7DF90EF90FF9005
:101060000F911F91CF91DF9108950C94C4060E94B7
:10107000EE06D8F3E894E0E0BB279F57F0F02AEDA6
:101080003FE049EC06C0EE0FBB0F661F771F881FBD
:1010900028F0B23A62077307840728F0B25A620B4D
:1010A000730B840BE3959A9572F7803830F49A9518
:1010B000BB0F661F771F881FD2F790480C943C091E
:1010C000EF93E0FF07C0A2EA2AED3FE049EC5FEBB7
:1010D0000E9484050E94D5060F90039401FC90584D
:1010E000E0E9F0E00C9448099B01AC0160E070E09D
:1010F00080E89FE30C94D9050C94BE060C943A0941
:101100000E94EE06D8F39923C9F3940F511DA3F35F
:101110009150504094F059F0882332F0660F771FB9
:10112000881F91505040C1F79E3F51052CF7880F02
:10113000911D9695879597F908955F3FACF0983E7D
:101140009CF0BB27869577956795B79508F4B160B5
:101150009395C1F7BB0F58F711F460FFE8CF6F5FAD
:101160007F4F8F4F9F4FE3CF0C94090716F00C94DD
:101170003A090C94C40668940C94BE060E94EE06CC
:10118000A8F39923C1F3AEF3DF93CF931F930F938B
:10119000FF92C92FDD2788232AF02197660F771F3A
:1011A000881FDAF720E030E040E85FEB9FE3883902
:1011B00020F0803E38F021968F770E946D05EEEA90
:1011C000F0E004C00E946D05EBEDF0E00E940E0817
:1011D0008B01BE01EC01FB2E6F5771097595771FCE
:1011E000880B990B0E94830628E132E741E35FE315
:1011F0000E942207AF2D9801AE01FF900F911F9121
:10120000CF91DF910E9484050C94D506FA01DC0190
:10121000AA0FBB1F9B01AC01BF5728F4222733271D
:101220004427507820C0B75190F4AB2F0024469546
:1012300037952795011CA395D2F3002071F0220F5A
:10124000331F441FB395DAF30ED00C946C05613054
:101250007105A0E88A07B94630F49B01AC01662706
:10126000772788279078309621F020833183428336
:10127000538308959F3F31F0915020F487957795DF
:101280006795B795880F911D9695879597F908955D
:101290009F938F937F936F93FF93EF939B01AC0189
:1012A0000E940F07EF91FF910E940E082F913F912E
:1012B0004F915F910C940F07A1E21A2EAA1BBB1B42
:1012C000FD010DC0AA1FBB1FEE1FFF1FA217B30712
:1012D000E407F50720F0A21BB30BE40BF50B661F28
:1012E000771F881F991F1A9469F7609570958095EC
:1012F00090959B01AC01BD01CF010895052E97FB90
:101300001EF400940E94950957FD07D00E945C09C5
:1013100007FC03D04EF40C949509509540953095F8
:1013200021953F4F4F4F5F4F089590958095709551
:0E13300061957F4F8F4F9F4F0895F894FFCF28
:06133E0000000306080A8E
:00000001FF
