S013000041726475696E6F436F64652E73726563C4
S11300000C9434000C9451000C9451000C94510045
S11300100C9451000C9451000C9451000C94510018
S11300200C9451000C9451000C9451000C94D30086
S11300300C9451000C9451000C9451000C945100F8
S11300400C9451000C9451000C9451000C945100E8
S11300500C9451000C9451000C9451000C945100D8
S11300600C9451000C94510011241FBECFEFD8E022
S1130070DEBFCDBF11E0A0E0B1E0ECE7F5E002C0E7
S113008005900D92A630B107D9F721E0A6E0B1E0C2
S113009001C01D92AC30B207E1F70E9405010C9437
S11300A0BC020C94000089B18C7F08959BB19370BD
S11300B08C7F892B8BB908958AB18C7F08959AB16E
S11300C093708C7F892B8AB9089586B18F730895B4
S11300D098B1907C8F73892B88B9089587B18F73F9
S11300E0089597B1907C8F73892B87B9089583B154
S11300F08F73089595B1907C8F73892B85B908957A
S113010084B18F73089594B1907C8F73892B84B9D3
S11301100895CF92DF92EF92FF92CF936B017C010F
S1130120C22F50930701409306011092850010924C
S11301308400E22FF0E0E050FF4F80E094E2A4EF6F
S1130140B0E0BC01CD01008004C0969587957795F9
S113015067950A94D2F7A70196010E949A0221504A
S11301603109309389002093880010928000C77071
S1130170C860C093810016BA82E080936F00CF916B
S1130180FF90EF90DF90CF900895EFE6F0E080814C
S1130190887F8083109280001092810010928200E8
S11301A0108216BA08951F920F920FB60F9211245F
S11301B02F933F934F935F936F937F938F939F936B
S11301C0AF93BF93EF93FF93E0910601F091070182
S11301D00995FF91EF91BF91AF919F918F917F917D
S11301E06F915F914F913F912F910F900FBE0F90A0
S11301F01F9018950E945C008F700E945F000E94FF
S11302005300806F0E945600089578940E946A01FA
S11302100E946E00807F0E9471000E9465008F60C2
S11302200E9468000E946500E82F80FF04C060E01F
S113023070E0CB0104C06CEE7FEF8FEF9FEFE1FD28
S113024004C064E170E080E090E0E2FF04C020E0DC
S113025030E0A90104C02CEE3FEF4FEF5FEFE3FD68
S113026004C024E130E040E050E00E94770189EFCF
S113027090E00197F1F700C00000D4CF809108010D
S1130280909109018F3F910530F4019690930901F3
S11302908093080107C0109209011092080181E0BF
S11302A080930B0180910801909109018F3791058A
S11302B040F40E94770090910A01892B0E947A00F1
S11302C008950E94770090910A01909589230E94D5
S11302D07A0008950E94FA000E9480008F600E94B4
S11302E083000E947700807F0E947A0008958F9295
S11302F09F92AF92BF92CF92DF92EF92FF92CF93F1
S113030049015A0110920A0161157105810591058F
S113031039F021E020930A01992324F0CAE003C0B4
S1130320CAE001C0C8E081149104A104B10441F001
S113033020910A01246020930A01BB200CF4C77F9A
S11303400E9436029F770E94FE016B017C01C50169
S1130350B4010E9436029F770E94FE014B015C01AA
S113036080910A01882331F00E947700857F8C2BCD
S11303700E947A0023E04EE351E060E078EC80E0F4
S113038090E00E94890080910B018823E1F3109290
S11303900B01C114D104E104F10431F081E0C81A65
S11303A0D108E108F10805C080910A018E7F80938D
S11303B00A0181149104A104B10431F081E0881A86
S11303C09108A108B10805C080910A018B7F809330
S11303D00A0180910A018111D6CF0E947700807FA3
S11303E00E947A000E94C500CF91FF90EF90DF90A9
S11303F0CF90BF90AF909F908F9008950E94050278
S11304006894B1110C94940208950E94790288F0C2
S11304109F5798F0B92F9927B751B0F0E1F0660FC4
S1130420771F881F991F1AF0BA95C9F714C0B13005
S113043091F00E949302B1E008950C949302672F07
S1130440782F8827B85F39F0B93FCCF38695779534
S11304506795B395D9F73EF490958095709561951D
S11304607F4F8F4F9F4F0895E89409C097FB3EF448
S113047090958095709561957F4F8F4F9F4F9923ED
S1130480A9F0F92F96E9BB279395F695879577956B
S11304906795B795F111F8CFFAF4BB0F11F460FF2B
S11304A01BC06F5F7F4F8F4F9F4F16C0882311F083
S11304B096E911C0772321F09EE8872F762F05C097
S11304C0662371F096E8862F70E060E02AF09A9532
S11304D0660F771F881FDAF7880F9695879597F927
S11304E0089557FD9058440F551F59F05F3F71F020
S11304F04795880F97FB991F61F09F3F79F0879587
S11305000895121613061406551FF2CF4695F1DF0F
S113051008C0161617061806991FF1CF869571059F
S1130520610508940895E894BB2766277727CB01D3
S113053097F90895A1E21A2EAA1BBB1BFD010DC059
S1130540AA1FBB1FEE1FFF1FA217B307E407F5077F
S113055020F0A21BB30BE40BF50B661F771F881F5B
S1130560991F1A9469F760957095809590959B01F1
S10F0570AC01BD01CF010895F894FFCF49
S109057C00000306080A5A
S9030000FC
