:100000000C94B1000C94CE000C94CE000C94CE0055
:100010000C94CE000C94CE000C94CE000C94CE0028
:100020000C94CE000C94CE000C94CE000C94500195
:100030000C94CE000C94CE000C94CE000C94CE0008
:100040000C94CE000C94CE000C94CE000C94CE00F8
:100050000C94CE000C94CE000C94CE000C94CE00E8
:100060000C94CE000C94CE0000407A10F35A00A0FD
:10007000724E18090010A5D4E80000E87648170071
:1000800000E40B54020000CA9A3B000000E1F505B1
:10009000000080969800000040420F000000A086FB
:1000A00001000000102700000000E803000000002D
:1000B0006400000000000A000000000001000000D1
:1000C00000002C76D888DC674F0823DFC1DFAE59EB
:1000D000E1B1B796E5E3E453C63AE651997696E87E
:1000E000E6C28426EB898C9B62ED407C6FFCEFBC02
:1000F0009C9F40F2BAA56FA5F490055A2AF75C932D
:100100006B6CF9676DC11BFCE0E40D47FEF520E662
:10011000B500D0ED902E0300943577050080841E45
:10012000080000204E0A000000C80C333333330FA0
:10013000986E12831141EF8D2114893BE65516CF3D
:10014000FEE6DB18D1844B381BF77C1D901DA4BB49
:10015000E424203284725E228100C9F124ECA1E5FE
:100160003D2711241FBECFEFD8E0DEBFCDBF11E089
:10017000A0E0B1E0EAE9FBE002C005900D92AA30F0
:10018000B107D9F721E0AAE0B1E001C01D92A0318A
:10019000B207E1F70E94B2010C94CB050C94000069
:1001A00089B18C7F08959BB193708C7F892B8BB91B
:1001B00008958AB18C7F08959AB193708C7F892BB2
:1001C0008AB9089586B18F73089598B1907C8F7322
:1001D000892B88B9089587B18F73089597B1907C62
:1001E0008F73892B87B9089583B18F73089595B163
:1001F000907C8F73892B85B9089584B18F7308958E
:1002000094B1907C8F73892B84B90895CF92DF923B
:10021000EF92FF92CF936B017C01C22F50930B01A1
:1002200040930A011092850010928400E22FF0E0C2
:10023000E050FF4F80E094E2A4EFB0E0BC01CD01BC
:10024000008004C096958795779567950A94D2F7B4
:10025000A70196010E9401032150310930938900C2
:100260002093880010928000C770C860C0938100FE
:1002700016BA82E080936F00CF91FF90EF90DF90ED
:10028000CF900895EFE6F0E08081887F8083109220
:1002900080001092810010928200108216BA089598
:1002A0001F920F920FB60F9211242F933F934F93EB
:1002B0005F936F937F938F939F93AF93BF93EF93CE
:1002C000FF93E0910A01F0910B010995FF91EF91E5
:1002D000BF91AF919F918F917F916F915F914F915E
:1002E0003F912F910F900FBE0F901F9018959C017A
:1002F00040E050E060E472E48FE090E00E9423036D
:10030000BA01A9014150510961097109852F8F7006
:100310008093C5004093C40088E18093C1008EE0C3
:100320008093C20008959091C00095FFFCCF809308
:10033000C6000895CF93DF93EC0103C00E949301A0
:10034000219688818111FACFDF91CF9108950E9483
:10035000D9008F700E94DC000E94D000806F0E9444
:10036000D3000895789480E895E20E9477010E9476
:100370000A020E94EB00807F0E94EE000E94E200D1
:100380008F600E94E5000E94E20080FF03C020E031
:1003900030E002C02CEE3FEF81FD02C024E130E0EE
:1003A00082FF03C060E070E002C06CEE7FEF83FD6F
:1003B00002C064E170E0C9010E941702E4CF80919D
:1003C0000C0190910D018A30910530F401969093C3
:1003D0000D0180930C0107C010920D0110920C01C9
:1003E00081E080930F0180910C0190910D010597A0
:1003F00040F40E94F40090910E01892B0E94F700B6
:1004000008950E94F40090910E01909589230E9416
:10041000F70008950E94A7010E94FD008F600E94CE
:1004200000010E94F400807F0E94F7000895BF92AF
:10043000CF92DF92EF92FF920F931F93CF93DF93B0
:10044000CDB7DEB7A0970FB6F894DEBF0FBECDBF15
:100450007C016B01892B41F4672B31F40E94F4007D
:100460008A7F0E94F70080C010920E01E114F1040F
:1004700051F081E080930E01FF2054F00F2EFAE03E
:10048000BF2EF02D08C00F2EFAE0BF2EF02D03C0B6
:100490006894BB24B3F8C114D10451F080910E01CB
:1004A000846080930E01DD201CF48B2D877FB82E95
:1004B000B6010D2C000C880B990B0E94C6028E0110
:1004C0000F5F1F4F23E045E00E944203C8010E94D6
:1004D0009A0186E091E00E949A018701FF2024F4AE
:1004E000002711270E191F097601DD2024F4EE24C0
:1004F000FF24EC18FD0880910E01882331F00E9442
:10050000F400857F8B290E94F70024E04FED51E035
:1005100068EF7AE280E090E00E94060180910F018E
:100520008823E1F310920F0111231CF001501109EF
:1005300005C080910E018E7F80930E01FF2024F074
:1005400081E0E81AF10805C080910E018B7F80934D
:100550000E0180910E018111E1CF0E94F4008A7F8B
:100560000E94F7000E944201A0960FB6F894DEBFE9
:100570000FBECDBFDF91CF911F910F91FF90EF90F4
:10058000DF90CF90BF900895E89409C097FB3EF4A8
:1005900090958095709561957F4F8F4F9F4F9923D0
:1005A000A9F0F92F96E9BB279395F695879577954E
:1005B0006795B795F111F8CFFAF4BB0F11F460FF0E
:1005C0001BC06F5F7F4F8F4F9F4F16C0882311F066
:1005D00096E911C0772321F09EE8872F762F05C07A
:1005E000662371F096E8862F70E060E02AF09A9515
:1005F000660F771F881FDAF7880F9695879597F90A
:100600000895A1E21A2EAA1BBB1BFD010DC0AA1F53
:10061000BB1FEE1FFF1FA217B307E407F50720F06B
:10062000A21BB30BE40BF50B661F771F881F991FE6
:100630001A9469F760957095809590959B01AC012F
:10064000BD01CF010895052E97FB1EF400940E9472
:100650003A0357FD07D00E94010307FC03D04EF474
:100660000C943A0350954095309521953F4F4F4F4C
:100670005F4F089590958095709561957F4F8F4F4E
:100680009F4F0895EF920F931F93CF93DF93E8014D
:1006900047FD02C034E001C034E1042E000C550BCC
:1006A00057FF03C0519541955109E32E022F242F86
:1006B000AE010E946203CE01DF91CF911F910F9195
:1006C000EF900895A9E0B0E0E8E6F3E00C949A0515
:1006D0006A01122FB02E2BE3201720F0FF24F39491
:1006E000F00E02C02CE3F22E0F2D27E0AE014F5F7B
:1006F0005F4F0E94BC04BC014981842F8970813006
:1007000031F0E1FC06C0E0FE06C090E205C09DE2CB
:1007100003C09BE201C090E05E2D507143FF3CC0DE
:10072000911102C083E001C084E0811718F4212FE9
:10073000281B01C020E051110BC0F601822F30E2CE
:10074000882319F031938150FBCFC20ED11C20E0D9
:10075000992329F0D6019C93F60131966F01C601C9
:100760000396E2FE0AC03EE4D6013C9341E41196B2
:100770004C93119712963C9306C03EE6F6013083E7
:1007800041E641833283FC01322F40E2332309F4F6
:1007900042C041933150FACF42FF44C0911102C090
:1007A00083E001C084E0811718F4212F281B01C0C9
:1007B00020E051110BC0F601822F30E2882319F09E
:1007C00031938150FBCFC20ED11C20E0992329F038
:1007D000D6019C93F60131966F01C6010396E2FEA5
:1007E0000BC039E4D6013C933EE411963C9311973B
:1007F00036E412963C9307C039E6F60130833EE6B4
:10080000318336E63283FC01322F40E2332319F084
:1008100041933150FBCFFC01E20FF11D10828EEFAE
:100820009FEFA6C021E030E0911102C020E030E04F
:10083000161617061CF4FB01319602C0E1E0F0E049
:100840002E0F3F1FBB2021F0EB2DF0E0319602C0B0
:10085000E0E0F0E02E0F3F1FE12FF0E02E173F0702
:100860001CF4121B212F01C020E08E2D887159F439
:10087000F601822F30E2882319F031938150FBCFAB
:10088000C20ED11C20E0992329F0D6019C93F601D9
:1008900031966F0151110BC0F601822F90E388232E
:1008A00019F091938150FBCFC20ED11C20E00F2D87
:1008B000060F9A81342F307144FF03C0913309F43D
:1008C0000150101624F4093018F008E001C001E0CE
:1008D000AB0177FF02C040E050E0FB01E41BF50BE9
:1008E000A1E0B0E0AC0FBD1FEA0FFB1F8EE2A82E07
:1008F0004B01801A91080B2D10E0119501951109FB
:100900004F3FBFEF5B0721F4D601AC9211966D010A
:10091000641775072CF08416950614F4818101C0C4
:1009200080E3415051093196D60111967D0140175F
:10093000510724F0D6018C936701E2CF6417750745
:1009400039F4963320F4953319F4311101C081E361
:10095000F6018083F701822F90E2882319F09193AA
:100960008150FBCFF701E20FF11D108280E090E093
:100970002996ECE00C94B605283008F027E03327E0
:10098000DA01990F311D87FD9160009661057105AF
:1009900039F432602E5F3D9330E32A95E1F70895F4
:1009A0009F3F30F080387105610509F03C5F3C5F86
:1009B0003D93913008F08068911DDF93CF931F9392
:1009C0000F93FF92EF92192F987F9695E92F9695A6
:1009D0009695E90FFF27EE53FF4F99273327EE2413
:1009E000FF24A701E70105900894079428F4360F27
:1009F000E71EF81E491F511D660F771F881F991F9C
:100A00000694A1F70590079428F4E70EF81E491FF5
:100A1000561FC11D770F881F991F661F0694A1F7E7
:100A20000590079428F4F80E491F561FC71FD11DC3
:100A3000880F991F661F771F0694A1F705900794EA
:100A400020F4490F561FC71FD81F990F661F771F25
:100A5000881F0694A9F784911095177041F0D695D8
:100A6000C79557954795F794E7941A95C1F7E8E627
:100A7000F0E06894159015913591659195910590E8
:100A80007FE27395E118F10A430B560BC90BD009AD
:100A9000C0F7E10CF11E431F561FC91FD01D7EF485
:100AA000703311F48A95E6CFE894015030F0080FC6
:100AB0000AF40027021708F4202F2395022F7A3317
:100AC00028F079E37D932A95E9F710C07D932A9564
:100AD00089F6069497956795379517951794E118B9
:100AE000F10A430B560BC90BD00998F023957E9160
:100AF00073957A3308F070E37C932013B8F77E91F6
:100B000070617D9330F0839571E37D9370E32A9556
:100B1000E1F71124EF90FF900F911F91CF91DF919A
:100B2000992787FD909508952F923F924F925F925B
:100B30006F927F928F929F92AF92BF92CF92DF92ED
:100B4000EF92FF920F931F93CF93DF93CDB7DEB752
:100B5000CA1BDB0B0FB6F894DEBF0FBECDBF0994E6
:100B60002A88398848885F846E847D848C849B843D
:100B7000AA84B984C884DF80EE80FD800C811B814B
:100B8000AA81B981CE0FD11D0FB6F894DEBF0FBE7A
:0A0B9000CDBFED010895F894FFCFEA
:0A0B9A0000000306080A090A000023
:00000001FF
