S013000041726475696E6F436F64652E73726563C4
S11300000C9434000C9451000C9451000C94510045
S11300100C9451000C9451000C9451000C94510018
S11300200C9451000C9451000C9451000C94D30086
S11300300C9451000C9451000C9451000C945100F8
S11300400C9451000C9451000C9451000C945100E8
S11300500C9451000C9451000C9451000C945100D8
S11300600C9451000C94510011241FBECFEFD8E022
S1130070DEBFCDBF11E0A0E0B1E0E8E1F4E002C0F2
S113008005900D92A630B107D9F721E0A6E0B1E0C2
S113009001C01D92AC30B207E1F70E9405010C9437
S11300A00A020C94000089B18C7F08959BB193706F
S11300B08C7F892B8BB908958AB18C7F08959AB16E
S11300C093708C7F892B8AB9089586B18F730895B4
S11300D098B1907C8F73892B88B9089587B18F73F9
S11300E0089597B1907C8F73892B87B9089583B154
S11300F08F73089595B1907C8F73892B85B908957A
S113010084B18F73089594B1907C8F73892B84B9D3
S11301100895CF92DF92EF92FF92CF936B017C010F
S1130120C22F50930701409306011092850010924C
S11301308400E22FF0E0E050FF4F80E094E2A4EF6F
S1130140B0E0BC01CD01008004C0969587957795F9
S113015067950A94D2F7A70196010E94E8012150FD
S11301603109309389002093880010928000C77071
S1130170C860C093810016BA82E080936F00CF916B
S1130180FF90EF90DF90CF900895EFE6F0E080814C
S1130190887F8083109280001092810010928200E8
S11301A0108216BA08951F920F920FB60F9211245F
S11301B02F933F934F935F936F937F938F939F936B
S11301C0AF93BF93EF93FF93E0910601F091070182
S11301D00995FF91EF91BF91AF919F918F917F917D
S11301E06F915F914F913F912F910F900FBE0F90A0
S11301F01F9018950E945C008F700E945F000E94FF
S11302005300806F0E945600089578940E946A01FA
S11302100E946E00807F0E9471000E9465008F60C2
S11302200E9468000E946500E82F80FD04C060E021
S113023070E0CB0104C06CEE7FEF8FEF9FEFE1FF26
S113024004C064E170E080E090E0E2FD04C020E0DE
S113025030E0A90104C02CEE3FEF4FEF5FEFE3FF66
S113026004C024E130E040E050E00E94770189EFCF
S113027090E00197F1F700C00000D4CF809108010D
S1130280909109018F3F910530F4019690930901F3
S11302908093080107C0109209011092080181E0BF
S11302A080930B0180910801909109018F3791058A
S11302B040F40E94770090910A01892B0E947A00F1
S11302C008950E94770090910A01909589230E94D5
S11302D07A0008950E94FA000E9480008F600E94B4
S11302E083000E947700807F0E947A0008958F9295
S11302F09F92AF92BF92CF92DF92EF92FF924B0107
S11303005C0169017A0110920A01672B682B692B41
S113031069F081E080930A01BB2044F4B094A09476
S113032090948094811C911CA11CB11C1C141D046C
S11303301E041F047CF480910A01846080930A01E6
S1130340FF2044F4F094E094D094C094C11CD11CD8
S1130350E11CF11C23E04EE351E060E078EC80E026
S113036090E00E94890080910B018823E1F31092B0
S11303700B0181149104A104B10431F081E0881AC5
S11303809108A108B10805C080910A018E7F80936D
S11303900A01C114D104E104F10431F081E0C81A66
S11303A0D108E108F10805C080910A018B7F809390
S11303B00A0180910A018111D6CF0E94C500FF90E5
S11303C0EF90DF90CF90BF90AF909F908F90089563
S11303D0A1E21A2EAA1BBB1BFD010DC0AA1FBB1F45
S11303E0EE1FFF1FA217B307E407F50720F0A21BB7
S11303F0B30BE40BF50B661F771F881F991F1A9424
S113040069F760957095809590959B01AC01BD014D
S10B0410CF010895F894FFCF19
S109041800000306080ABF
S9030000FC
