:100000000C9434000C9451000C9451000C94510049
:100010000C9451000C9451000C9451000C9451001C
:100020000C9451000C9451000C9451000C94D3008A
:100030000C9451000C9451000C9451000C945100FC
:100040000C9451000C9451000C9451000C945100EC
:100050000C9451000C9451000C9451000C945100DC
:100060000C9451000C94510011241FBECFEFD8E026
:10007000DEBFCDBF11E0A0E0B1E0E0EDFBE002C0EB
:1000800005900D92A630B107D9F721E0A6E0B1E0C6
:1000900001C01D92A431B207E1F70E9439010C940E
:1000A000E6050C94000089B18C7F08959BB1937094
:1000B0008C7F892B8BB908958AB18C7F08959AB172
:1000C00093708C7F892B8AB9089586B18F730895B8
:1000D00098B1907C8F73892B88B9089587B18F73FD
:1000E000089597B1907C8F73892B87B9089583B158
:1000F0008F73089595B1907C8F73892B85B908957E
:1001000084B18F73089594B1907C8F73892B84B9D7
:100110000895CF92DF92EF92FF92CF936B017C0113
:10012000C22F509307014093060110928500109250
:100130008400E22FF0E0E050FF4F80E094E2A4EF73
:10014000B0E0BC01CD01008004C0969587957795FD
:1001500067950A94D2F7A70196010E94A505215040
:100160003109309389002093880010928000C77075
:10017000C860C093810016BA82E080936F00CF916F
:10018000FF90EF90DF90CF900895EFE6F0E0808150
:10019000887F8083109280001092810010928200EC
:1001A000108216BA08951F920F920FB60F92112463
:1001B0002F933F934F935F936F937F938F939F936F
:1001C000AF93BF93EF93FF93E0910601F091070186
:1001D0000995FF91EF91BF91AF919F918F917F9181
:1001E0006F915F914F913F912F910F900FBE0F90A4
:1001F0001F9018959C0140E050E060E472E48FE0AD
:1002000090E00E94C705BA01A90141505109610956
:100210007109852F8F708093C5004093C40088E1D9
:100220008093C1008EE08093C200089580E895E23B
:100230000E94FA0008950E945C008F700E945F0087
:100240000E945300806F0E9456000895CF93C82FDC
:100250000E945300282F30E0C901809590952C2FE3
:1002600030E02823392381E0232B09F480E0CF916B
:10027000089578940E9416010E9493020E946E00D5
:10028000807F0E9471000E9465008F600E9468005C
:100290000E94B30160E080E00E9430022FEF81E114
:1002A0009AE7215080409040E1F700C0000060E0F4
:1002B00083E00E9430022FEF81E19AE721508040D5
:1002C0009040E1F700C0000063E080E00E9430024F
:1002D0002FEF81E19AE7215080409040E1F700C084
:1002E000000067E087E00E9430022FEF81E19AE78B
:1002F000215080409040E1F700C00000CBCFCF9369
:10030000C0E00BC060E070E08CE99FEF0E94A002AB
:1003100080E10E9426018111C1E0CC2399F3109263
:100320000C0110920D0110920E0110920F01CF914D
:100330000895CF93C0E00BC06CE97FEF80E090E0C0
:100340000E94A00280E40E9426018111C1E0CC231A
:1003500099F3109208011092090110920A0110926B
:100360000B01CF9108950E947F010E949901089589
:100370004F925F926F927F928F929F92AF92BF92B5
:10038000CF92DF92EF92FF9269017A0120910C01E6
:1003900030910D0140910E0150910F010E94950383
:1003A0004B015C01209108013091090140910A0143
:1003B00050910B01C701B6010E9495036B017C01AE
:1003C00024EE36E547EF5BE3C501B4010E94020469
:1003D0000E9474042B013C0126E13EED45EE5BE3F7
:1003E000C701B6010E9402040E947404C2010E9467
:1003F000A002882341F1A501940160910C01709144
:100400000D0180910E0190910F010E94960360935F
:100410000C0170930D0180930E0190930F01A701C1
:100420009601609108017091090180910A019091F3
:100430000B010E9496036093080170930901809359
:100440000A0190930B01FF90EF90DF90CF90BF9047
:10045000AF909F908F907F906F905F904F90089596
:10046000CF92DF92EF92FF92CF93C62F682F70E06A
:1004700080E090E00E94AC0420E030E04CEB50E4DF
:100480000E94380520E030E040E85FE30E949603D8
:100490006B017C016C2F70E080E090E00E94AC0466
:1004A00020E030E04CEB50E40E94380520E030E0E2
:1004B00040E85FE30E9496039B01AC01C701B601CF
:1004C0000E94B801CF91FF90EF90DF90CF900895F8
:1004D00080911001909111018A30910530F40196BC
:1004E000909311018093100107C010921101109296
:1004F000100181E08093130180911001909111010E
:10050000059740F40E94770090911201892B0E9478
:100510007A0008950E9477009091120190958923A6
:100520000E947A0008950E941B010E9480008F6043
:100530000E9483000E947700807F0E947A000895C5
:10054000CF92DF92EF92FF920F931F93CF93DF939F
:10055000009721F46115710509F4D5C010921201BC
:10056000009751F021E020931201992354F00F2EAF
:10057000FAE0FF2EF02D08C00F2EFAE0FF2EF02D2E
:1005800003C06894FF24F3F86115710551F02091C0
:10059000120124602093120177231CF42F2D277F52
:1005A000F22E6B01EC0180E10E942601882319F0F4
:1005B000DD230CF4AAC080E20E942601882321F0EA
:1005C0001C161D060CF4A3C080E40E94260188239B
:1005D00019F0DD200CF49DC080E80E9426018823DC
:1005E00021F01C141D040CF496C08E01DD2324F4AC
:1005F000002711270C1B1D0BE601DD2324F4CC275B
:10060000DD27CC19DD0980911201882331F00E9489
:100610007700857F8F290E947A0024E048E652E027
:1006200068EF7AE280E090E00E948900D12CE12C12
:10063000809113018823E1F31092130180E10E945D
:100640002601882321F0F1FC02C0EE24E39480E22D
:100650000E942601882321F0F1FE02C0EE24E394DB
:1006600080E40E942601882321F0F3FC02C0DD24EF
:10067000D39480E80E942601882321F0F3FE02C073
:10068000DD24D394EE2069F0209749F40E9477008E
:100690008A7F0E947A000E94C50080E03DC000E091
:1006A00010E0DD2071F00115110549F40E9477007A
:1006B0008A7F0E947A000E94C50080E02DC0C0E0C1
:1006C000D0E0101611061CF40150110905C08091EC
:1006D00012018E7F809312011C161D0614F42197BF
:1006E00005C0809112018B7F8093120180911201CD
:1006F00081119ECF0E9477008A7F0E947A000E941B
:10070000C50081E009C081E007C080E005C080E04D
:1007100003C080E001C080E0DF91CF911F910F9175
:10072000FF90EF90DF90CF9008955058BB27AA27F5
:100730000E94AD030C94FE040E94F00438F00E9465
:10074000F70420F039F49F3F19F426F40C94ED04DB
:100750000EF4E095E7FB0C94E704E92F0E940F05E7
:1007600058F3BA17620773078407950720F079F4E6
:10077000A6F50C9431050EF4E0950B2EBA2FA02DA2
:100780000B01B90190010C01CA01A0011124FF273E
:10079000591B99F0593F50F4503E68F11A16F04039
:1007A000A22F232F342F4427585FF3CF4695379538
:1007B0002795A795F0405395C9F77EF41F16BA0BFD
:1007C000620B730B840BBAF09150A1F0FF0FBB1FAB
:1007D000661F771F881FC2F70EC0BA0F621F731FF4
:1007E000841F48F4879577956795B795F7959E3F51
:1007F00008F0B0CF9395880F08F09927EE0F9795E2
:10080000879508950E9416040C94FE040E94F70434
:1008100058F00E94F00440F029F45F3F29F00C9456
:10082000E70451110C9432050C94ED040E940F055D
:1008300068F39923B1F3552391F3951B550BBB270F
:10084000AA2762177307840738F09F5F5F4F220F54
:10085000331F441FAA1FA9F335D00E2E3AF0E0E84B
:1008600032D091505040E695001CCAF72BD0FE2F95
:1008700029D0660F771F881FBB1F26173707480729
:10088000AB07B0E809F0BB0B802DBF01FF279358E1
:100890005F4F3AF09E3F510578F00C94E7040C94BA
:1008A00032055F3FE4F3983ED4F3869577956795DC
:1008B000B795F7959F5FC9F7880F911D9695879516
:1008C00097F90895E1E0660F771F881FBB1F621735
:1008D00073078407BA0720F0621B730B840BBA0BF3
:1008E000EE1F88F7E09508950E947B046894B1118B
:1008F0000C94320508950E94170588F09F5798F0D0
:10090000B92F9927B751B0F0E1F0660F771F881F14
:10091000991F1AF0BA95C9F714C0B13091F00E942E
:100920003105B1E008950C943105672F782F8827A1
:10093000B85F39F0B93FCCF3869577956795B39555
:10094000D9F73EF490958095709561957F4F8F4FC4
:100950009F4F0895E89409C097FB3EF490958095C9
:10096000709561957F4F8F4F9F4F9923A9F0F92F75
:1009700096E9BB279395F695879577956795B795F3
:10098000F111F8CFFAF4BB0F11F460FF1BC06F5FD9
:100990007F4F8F4F9F4F16C0882311F096E911C0EB
:1009A000772321F09EE8872F762F05C0662371F00C
:1009B00096E8862F70E060E02AF09A95660F771F20
:1009C000881FDAF7880F9695879597F9089597F914
:1009D0009F6780E870E060E008959FEF80EC0895E5
:1009E00000240A941616170618060906089500240E
:1009F0000A9412161306140605060895092E039488
:100A0000000C11F4882352F0BB0F40F4BF2B11F4FB
:100A100060FF04C06F5F7F4F8F4F9F4F089557FD5A
:100A20009058440F551F59F05F3F71F04795880F5C
:100A300097FB991F61F09F3F79F0879508951216F3
:100A400013061406551FF2CF4695F1DF08C016169F
:100A500017061806991FF1CF869571056105089450
:100A60000895E894BB2766277727CB0197F9089567
:100A70000E944B050C94FE040E94F00438F00E9482
:100A8000F70420F0952311F00C94E7040C94ED0486
:100A900011240C9432050E940F0570F3959FC1F349
:100AA000950F50E0551F629FF001729FBB27F00D1C
:100AB000B11D639FAA27F00DB11DAA1F649F662771
:100AC000B00DA11D661F829F2227B00DA11D621FC0
:100AD000739FB00DA11D621F839FA00D611D221F7A
:100AE000749F3327A00D611D231F849F600D211D5E
:100AF000822F762F6A2F11249F5750409AF0F1F0E1
:100B000088234AF0EE0FFF1FBB1F661F771F881F49
:100B100091505040A9F79E3F510580F00C94E70496
:100B20000C9432055F3FE4F3983ED4F386957795B5
:100B30006795B795F795E7959F5FC1F7FE2B880FEF
:100B4000911D9695879597F90895A1E21A2EAA1BF3
:100B5000BB1BFD010DC0AA1FBB1FEE1FFF1FA2176D
:100B6000B307E407F50720F0A21BB30BE40BF50B6A
:100B7000661F771F881F991F1A9469F760957095F3
:100B8000809590959B01AC01BD01CF010895052E84
:100B900097FB1EF400940E94DE0557FD07D00E94CB
:100BA000A50507FC03D04EF40C94DE055095409546
:100BB000309521953F4F4F4F5F4F08959095809509
:100BC000709561957F4F8F4F9F4F0895F894FFCF99
:060BD00000000306080A04
:00000001FF
